:020000040800F2
:1000000000000320AD2A0008FD2A0008FD2A000890
:10001000FD2A0008FD2A0008FD2A00080000000053
:100020000000000000000000000000002113000894
:10003000FD2A000800000000B1130008D5290008BF
:10004000FD2A0008FD2A0008FD2A0008FD2A0008F4
:10005000FD2A0008FD2A0008FD2A0008FD2A0008E4
:10006000FD2A0008FD2A0008FD2A0008FD2A0008D4
:10007000FD2A0008FD2A0008FD2A0008FD2A0008C4
:10008000FD2A0008FD2A0008FD2A0008FD2A0008B4
:10009000FD2A0008FD2A0008FD2A0008FD2A0008A4
:1000A000FD2A0008FD2A0008FD2A0008FD2A000894
:1000B000FD2A0008FD2A0008FD2A0008FD2A000884
:1000C000FD2A0008FD2A0008FD2A0008FD2A000874
:1000D000FD2A0008FD2A0008FD2A0008FD2A000864
:1000E000FD2A0008FD2A0008FD2A0008FD2A000854
:1000F000FD2A0008FD2A0008FD2A0008FD2A000844
:10010000FD2A0008FD2A0008FD2A0008FD2A000833
:10011000FD2A0008FD2A0008D9290008FD2A000848
:10012000FD2A0008FD2A0008FD2A0008FD2A000813
:10013000FD2A0008FD2A0008FD2A0008FD2A000803
:10014000FD2A0008FD2A0008FD2A0008FD2A0008F3
:10015000FD2A0008FD2A0008FD2A0008FD2A0008E3
:10016000FD2A0008FD2A0008FD2A0008FD2A0008D3
:10017000FD2A0008E5290008FD2A0008000000000B
:10018000FD2A0008FD2A0008FD2A0008FD2A0008B3
:10019000FD2A0008FD2A0008FD2A0008FD2A0008A3
:0C01A000F1290008FD2A0008FD290008D4
:1001B00010B5054C237833B9044B13B10448AFF3A1
:1001C00000800123237010BD080000200000000003
:1001D000702B000808B5034B1BB103490348AFF36C
:1001E000008008BD000000000C000020702B0008FB
:1001F000014B1868704700BF3C23002038B5044607
:10020000FFF7F6FF631C1CBF054B1B78054618BFA4
:10021000E418FFF7EDFF401B8442FAD838BD00BF59
:100220000000002070477047036870B55E681D6865
:10023000F207044614D5E90512D51A6822F4807233
:100240001A60C26B42F00102C26301229A60042369
:1002500080F83930002380F83830436903B198477B
:10026000B20616D5AB0414D523681A6822F40052DE
:100270001A6020229A60E36B43F00203E3630423D5
:1002800084F83930002384F8383063690BB1204694
:100290009847300716D5290514D523681A6822F423
:1002A00000621A6008229A60E36B43F00403E36380
:1002B000042384F83930002384F8383063690BB1A3
:1002C0002046984772070BD56B0509D523681A6835
:1002D00022F480621A6004229A602046FFF7A2FF8F
:1002E000B00714D5A90512D523681A6822F4007244
:1002F0001A6002229A60E36BE363012384F83930C9
:10030000002384F8383023690BB120469847F20661
:1003100013D5EB0411D523681A6822F480521A60B1
:1003200010229A60E36BE363012384F839300023E1
:1003300084F838302046FFF776FF70BD2DE9F04F86
:1003400085B00B68DFF8C4816E4ADFF8C491019371
:1003500000234FF0010E019C0EFA03FE0EEA040684
:10036000B64540F0B6804C6824F01007022F16D135
:100370004FEAD30A00EB8A0A03F0070BDAF82050A1
:100380004FEA8B0B4FF00F0C0CFA0BFC25EA0C0C10
:100390000D6905FA0BF545EA0C05CAF820504FEA3D
:1003A000430A0325D0F800B005FA0AF5ED4304F03E
:1003B000030C0BEA050B0CFA0AFC013F4CEA0B0C90
:1003C000012FC0F800C011D8876807EA050BCF6875
:1003D00007FA0AFC4CEA0B078760476827EA0E0E0B
:1003E000C4F300179F4047EA0E074760C7683D40C7
:1003F0008F6807FA0AF73D43C560E50069D54FF0FD
:10040000000BCDF80CB0D8F844703F4D47F480474E
:10041000C8F84470D8F8447007F480470397039FE6
:1004200023F0030707F1804707F59C3703F0030C1F
:10043000D7F808A04FEA8C0C4FF00F0E0EFA0CFE06
:10044000A8422AEA0E0E4BD005F58065A84249D095
:1004500005F58065A84247D005F58065A84245D0DE
:1004600005F58065A84243D0484543D005F50065B1
:10047000A84241D005F58065A8423FD005F58065CA
:10048000A8423DD005F58065A84214BF0A2509257C
:1004900005FA0CF545EA0E05BD601568F74314F43E
:1004A000803F0CBF3D4035431560556814F4003F54
:1004B0000CBF3D4035435560956814F4801F0CBF58
:1004C0003D4035439560D568A40254BF3D40354357
:1004D000D5600133102B7FF43CAF05B0BDE8F08F41
:1004E0005D46D5E70125D3E70225D1E70325CFE710
:1004F0000425CDE70525CBE70625C9E70725C7E78E
:100500000825C5E7003C01400000024000380240D9
:10051000001402400AB1816170470904FBE7000042
:100520002DE9F04F066887B00446304600F078FCAD
:10053000012840F0EC80206800F06EFC002800F0FC
:10054000E680206800F068FC810248BF23682068CC
:1005500044BF4FF400125A6100F05EFCC20248BF73
:100560002368206844BF4FF480125A6100F054FCA5
:10057000430148BF2368206844BF4FF080625A613E
:1005800000F04AFC870748BF2368206844BF022266
:100590005A6100F041FC850010D5D6F8403423F0B4
:1005A0002E03C6F84034204602F05CFA0121206890
:1005B00000F03AFC23684FF000525A61206800F0C6
:1005C0002BFCC00140D52568D5F840340493D5F8FC
:1005D00040340593059B23F02E030593049B990754
:1005E0000DD5049BDA0706D5AB6923F00053AB6148
:1005F000204602F033FA059B43F002030593049B67
:100600001B0717D5059B43F008030593049B5F0761
:1006100040F18880A16902297CD1049B206803F401
:10062000C023B3F5802F18BF012100F0FDFB204649
:1006300002F014FA049B980642BF059B43F0200386
:100640000593059BC5F84034206800F0E5FB0107E1
:1006500005D5204602F0FEF9236808225A61206879
:1006600000F0DAFB820114D5206800F018FC06F5D2
:10067000A063029001934FF0000B4FF0010A28276E
:100680004FF00209A3689B4558D323684FF00072CE
:100690005A61206800F0C0FBC30638D52568AB69F5
:1006A00023F01003AB612F6AC7F34343022B29D118
:1006B000C7F30A18B8F1000F24D007F00F07282657
:1006C00006FB0746716CE9B14246284600F096FBEE
:1006D000736C4344736405F5A065F36C05EB471533
:1006E0004344F3642A69B74B13405BB12B6823F092
:1006F000804343F000432B6096F8503083F00103B1
:1007000086F850302268936943F01003936107B074
:10071000BDE8F08FE368032B04BF4EF66022C5F8F6
:10072000042484E7D5F84034226823F02E03C5F86A
:100730004034936943F0005393617BE7029A0AFACD
:100740000BF3134200F08680019B20681B6813F4B2
:10075000004F5FFA8BF500F00A816A0100F5A0688E
:1007600002EB0806B1684B0713D50421B160F168AC
:1007700041F00201F160B1688B053DD5F368206856
:1007800043F00203F360294600F098FB4FF4007336
:100790002BE1B168890602D52021B160EBE7B16891
:1007A0000B0713D5F168039241F00201F16007FBDA
:1007B00005414FF0050E81F85DE01021B160082180
:1007C000B160294600F07AFB039AD4E7B168490585
:1007D000D1D5F168039241F00201F160294600F0A1
:1007E0006DFB1021B16007FB0541082081F85D0019
:1007F0004FF48061B160E7E7B168C80740D521696F
:1008000049B107FB054E3069DEF84810C0F312000D
:10081000091ACEF84C1007FB05410020886581F8C5
:100820005DA0C6F808A091F83F0010F0FD0F17D1A9
:10083000F368206843F00203F360294600F03EFBB2
:100840001023B36007FB054595F8503083F0010392
:1008500085F85030019B20330BF1010B019311E718
:100860000328EFD152F8080040F0005042F8080089
:1008700081F85CA001222946204602F0F7F8E1E762
:10088000B168890735D5F16807FB054021F0020101
:10089000F16090F85D1001290CD180F85C1007FB25
:1008A0000543C6F8089093F85C202946204602F0DC
:1008B000DDF8CFE70529F0D0062901D00829EED1CF
:1008C00007FB0541886D032800F1010388BF002064
:1008D0008B6583BF8865042081F85C0081F85C909B
:1008E00052F8081021F0804141F0004142F8081010
:1008F000D5E7B1680B0611D5F368206843F0020311
:10090000F36007FB054329469A6D01329A6506227A
:1009100083F85D2000F0D2FA802366E0B168C80653
:1009200098D507FB054191F83F10032909D1F168DB
:100930002068039241F00201F160294600F0BEFAFE
:10094000039A07FB0545032185F85D101021B1606E
:1009500095F83F1011F0FD0F7FF47CAF52F80810AE
:1009600021F0804141F0004142F8081072E700F5A3
:10097000A06606EB4516B368590706D50423B36095
:10098000F36843F00203F36064E7B36813F02003F5
:100990001AD02023B36007FB054393F83D20012ABA
:1009A0007FF458AF042283F85D20F268039342F08D
:1009B0000202F260294600F081FA039B83F85C9002
:1009C00048E700BF0000F81FB26852060FD507FBCA
:1009D000054204219365F36882F85D1043F0020339
:1009E000F360294600F06AFA4023B36032E7B26848
:1009F00012F4007205D0F36843F00203F360294655
:100A0000C2E6B368D90710D507FB054329469A65A6
:100A1000F268039342F00202F26000F04FFA039B87
:100A2000C6F808A083F85DA014E7B3681A070ED5CE
:100A30000823B360F36843F00203F360294600F033
:100A40003DFA07FB0545052385F85D3002E7B368ED
:100A5000DB0611D507FB054300229A65F268039374
:100A600042F00202F260294600F028FA039B0322BA
:100A700083F85D201023B8E7B36819060CD5F36836
:100A800043F00203F360294607FB054500F016FA20
:100A9000062385F85D303FE7B16811F480610FD01F
:100AA000F36843F00203F360294600F007FA1023CD
:100AB000B3604FF48063B36007FB05450823C3E7C9
:100AC000B3689A077FF5C6AEF36823F00203F360BC
:100AD00007FB054393F85D20012A0DD183F85C20C4
:100AE00093F83F20022A7FF4DAAE93F8512082F087
:100AF000010283F85120D2E6032A02D183F85C90E8
:100B0000CDE6042A04D183F85C9083F83D10C6E654
:100B1000052A02D183F85C20C1E6062A02D0082A01
:100B20007FF4BDAE07FB05439A6D511C032A9965FE
:100B3000E4D900229A650422ECE700BF38B590F8AA
:100B40009032012B04460DD0012580F890520068A8
:100B500000F025F92946206800F083F9002084F888
:100B6000900238BD022038BD90F89032012B10B5AC
:100B7000044609D0012380F89032006800F087FA1B
:100B8000002084F8900210BD022010BD704770470D
:100B90007047036870B59E6B5D6B7207044614D591
:100BA000690712D55A6B22F004025A630422DA63F1
:100BB000D0F8A43043F00103C0F8A430002380F83B
:100BC000A12080F8A030FFF7E1FFB20716D5AB07F0
:100BD00014D523685A6B22F002025A630222DA63A8
:100BE000D4F8A4301343C4F8A430042384F8A1300B
:100BF000002384F8A0302046FFF7C8FFF00710D587
:100C0000E9070ED523685A6B22F001025A630122CC
:100C1000DA63002384F8A12084F8A0302046FFF78F
:100C2000B6FF320711D52B070FD523685A6B22F078
:100C300008025A630822DA63012384F8A1300023F2
:100C400084F8A0302046FFF7A3FF70BD70477047BF
:100C500070477047704703681A69910710B50446DA
:100C60000ED5DA6892070BD56FF002021A619B6904
:100C700001229B07027677D0FFF7EAFF0023237655
:100C800023681A69500710D5DA6851070DD56FF03F
:100C900004021A619B69022213F4407F22762046E7
:100CA00068D0FFF7D5FF0023237623681A6912075F
:100CB0000FD5DA6810070CD56FF008021A61DB69EE
:100CC00004229907227620465AD0FFF7C1FF00235D
:100CD000237623681A69D20610D5DA68D0060DD5B6
:100CE0006FF010021A61DB69082213F4407F22764C
:100CF00020464BD0FFF7ACFF0023237623681A6908
:100D0000D10708D5DA68D20705D56FF001021A615C
:100D10002046FFF79BFF23681A69100608D5DA689A
:100D2000110605D56FF080021A61204600F036F8F2
:100D300023681A69520608D5DA68500605D56FF09F
:100D400040021A612046FFF785FF23681A69910661
:100D500022D5DA6892061FD56FF0200220461A616C
:100D6000BDE8104000F019B8FFF771FF2046FFF70B
:100D700070FF83E7FFF76BFF2046FFF76AFF92E7FC
:100D8000FFF765FF2046FFF764FFA0E7FFF75FFF6F
:100D90002046FFF75EFFAFE710BD704770478368DE
:100DA00043F00103836000207047836823F0010350
:100DB0008360002070470000890141F02001064A4D
:100DC0000161013A05D0036913F02003F9D11846F7
:100DD00070470320704700BF410D03001023064AEF
:100DE0000361013A05D0036913F01003F9D11846E5
:100DF00070470320704700BF410D0300033222F00B
:100E000003020A4400F58050914201D10846704720
:100E1000036841F8043BF7E7426980691040704776
:100E2000406900F001007047D0F8003423F003035C
:100E300010B5C0F80034D0F8004401F00303234398
:100E4000012900F58062C0F8003404D14BF68033EC
:100E50005360002010BD022904BF41F2707353603B
:100E6000F7E782B0D0F840340193019B23F02E03C2
:100E70000193019BDA0406D4012902BF019B43F4CC
:100E80008053C0F84034019BDB0405D521B9019B98
:100E900023F48053C0F84034002002B0704780B47F
:100EA00083B000AF78607B6803F580635B699BB2B9
:100EB00018460C37BD465DF8047B704780B485B09A
:100EC00000AF78600B46FB700023FB60FB785A0193
:100ED0007B68134403F5A0631B689B0C03F00303BA
:100EE000002B0BD0FB785A017B68134403F5A063F9
:100EF0001B689B0C03F00303022B60D1FB785A01A3
:100F00007B68134403F5A0631946FB785A017B689C
:100F1000134403F5A0631B6843F080430B607B68B8
:100F2000DB6A03F47F03002B35D1FB785A017B6821
:100F3000134403F5A0631946FB785A017B681344F8
:100F400003F5A0631B6823F000430B60FB785A0194
:100F50007B68134403F5A0631946FB785A017B684C
:100F6000134403F5A0631B6843F000430B60FB6868
:100F70000133FB60FB68B3F57A7F1ED8FB785A011A
:100F80007B68134403F5A0631B6803F00043B3F1CF
:100F9000004FECD074E0FB785A017B68134403F5F2
:100FA000A0631946FB785A017B68134403F5A063DC
:100FB0001B6843F000430B6062E000BF60E0FB7819
:100FC0005A017B68134403F5A0631946FB785A0164
:100FD0007B68134403F5A0631B6843F080430B60F8
:100FE0007B6803F580631B699BB2002B35D1FB78CE
:100FF0005A017B68134403F5A0631946FB785A0134
:101000007B68134403F5A0631B6823F000430B6067
:10101000FB785A017B68134403F5A0631946FB78FB
:101020005A017B68134403F5A0631B6843F0004337
:101030000B60FB680133FB60FB68B3F57A7F1ED859
:10104000FB785A017B68134403F5A0631B6803F027
:101050000043B3F1004FECD012E0FB785A017B68FB
:10106000134403F5A0631946FB785A017B681344C7
:1010700003F5A0631B6843F000430B6000E000BF72
:10108000002318461437BD465DF8047B704780B5D1
:1010900086B000AF786000233B617868FFF785FE7B
:1010A00010217868FFF788FE7868FFF797FE002325
:1010B000FB751FE0FB7D5A017B68134403F5A063B9
:1010C0001B68FB60FB6843F08043FB60FB6823F018
:1010D0000043FB60FB6823F40043FB60FB7D5A0187
:1010E0007B68134403F5A0631A46FB681360FB7D1D
:1010F0000133FB75FB7D0F2BDCD90023FB7534E03E
:10110000FB7D5A017B68134403F5A0631B68FB60F9
:10111000FB6843F08043FB60FB6843F00043FB60E7
:10112000FB6823F40043FB60FB7D5A017B6813449A
:1011300003F5A0631A46FB6813603B6901333B610A
:101140003B69B3F57A7F0CD8FB7D5A017B68134469
:1011500003F5A0631B6803F00043B3F1004FECD02C
:1011600000E000BFFB7D0133FB75FB7D0F2BC7D972
:101170007B6803F580631A464FF0FF3353617B6849
:101180004FF0FF325A617868FFF709FE00231846D6
:101190001837BD4680BDD0F8B8230132C0F8B82357
:1011A00002780A2A04D1D0F874330BB19B6918472E
:1011B0007047037810B504467BB9012380F81E33CD
:1011C000D0F8C4330BB10421984700220121D4F890
:1011D000C80300F03FF8002010BD0378012B04BFC6
:1011E00002230370F1E710B5044601F051FC2179A8
:1011F000204600F023F86179204600F01FF8002314
:1012000084F81E33D4F8C43313B10521204698471F
:10121000204601F02FFC0323237000220121D4F883
:10122000C80300F017F8002010BD08B50022022105
:10123000D0F8C80300F00EF8002008BD0A299FBFAF
:1012400000EB8100D0F87C33C3F30E03C0F87C338D
:10125000002070471FB5002401910394A24208BFEB
:101260000122EFF30583ABB1234603AA01A900F0E5
:1012700037FA012802D0FF2004B010BD039B3BB118
:10128000074B4FF080521A60BFF34F8FBFF36F8F41
:101290000020F1E701A900F06DF90128EBD1F7E793
:1012A00004ED00E008B500F0EFFC012803D0BDE834
:1012B000084000F0AFB808BD43684B609A688A6088
:1012C0009A68516099600368086101330360704750
:1012D0000A68531C30B50AD103695A684A609160A4
:1012E0008B605960036808610133036030BD00F111
:1012F00008035C682568AA42EFD32346F9E74168F2
:10130000826803698A60826851605968884208BFB0
:101310005A600022026118680138186070470000A6
:10132000074B19680868B0E8F04F80F30988BFF3ED
:101330006F8F4FF0000080F311887047AFF300808B
:101340002C0000204FF0500383F31188BFF36F8F00
:10135000BFF34F8F0A4A13680133012B13600DD17D
:10136000084B1B6813F0FF0F08D04FF0500383F3B6
:101370001188BFF36F8FBFF34F8FFEE7704700BF39
:101380000400002004ED00E0084A136843B94FF060
:10139000500383F31188BFF36F8FBFF34F8FFEE7C6
:1013A000013B13600BB983F31188704704000020E0
:1013B000EFF30980BFF36F8F154B1A681EF0100F03
:1013C00008BF20ED108A20E9F04F10604DF8043D71
:1013D0004FF0500080F31188BFF34F8FBFF36F8F32
:1013E00000F054FB4FF0000080F3118808BC19682E
:1013F0000868B0E8F04F1EF0100F08BFB0EC108A7C
:1014000080F30988BFF36F8F704700BFAFF3008090
:101410002C00002008B54FF0500383F31188BFF370
:101420006F8FBFF34F8F00F027FA18B1034B4FF0C7
:1014300080521A60002383F3118808BD04ED00E098
:10144000EFF305830F2B0ED9104A9B5C104A1278DC
:101450009A4208D94FF0500383F31188BFF36F8F7E
:10146000BFF34F8FFEE70B4B0B4A1B68126803F468
:10147000E063934208D94FF0500383F31188BFF320
:101480006F8FBFF34F8FFEE7704700BFF0E300E0C0
:10149000240000200CED00E02800002070B5154667
:1014A000026C866B044642B905689DB9406800F03D
:1014B000FBFB65600136A66370BD6DB9806801F005
:1014C00043FBA368226C13446268A360934201D378
:1014D0002368A3600020EDE7C06801F035FB236CB2
:1014E000E26821685B421A448A42E2603EBF626859
:1014F0009B18E360022DEDD10EB1013EEAE73046C4
:10150000D8E770B50446FFF71DFF94F8455004F185
:1015100024066DB2002D14DCFF2384F84530FFF75C
:1015200033FFFFF70FFF94F8445004F110066DB23B
:10153000002D12DCFF2384F84430BDE87040FFF733
:1015400023BF636A002BE7D0304600F00BFB08B1E5
:1015500000F094FB013D6DB2DCE72369002BE9D07C
:10156000304600F0FFFA08B100F088FB013D6DB293
:10157000DEE700002DE9FF47894601921F46044639
:1015800040B94FF0500383F31188BFF36F8FBFF35F
:101590004F8FFEE7002940F08880036C002B00F09D
:1015A00084804FF0500383F31188BFF36F8FBFF334
:1015B0004F8FFEE7019E002E00F082804FF0500317
:1015C00083F31188BFF36F8FBFF34F8FFEE7019D49
:1015D0001DB9FFF7D9FE002058E016B902A800F0A7
:1015E00003FBFFF7D1FE00F03FF9FFF7ABFE94F8E5
:1015F0004430FF2B08BF84F8448094F84530FF2B1B
:1016000008BF84F84580FFF7BFFE01A902A800F0DB
:10161000FBFA002843D1FFF795FEA66BE56BFFF7B9
:10162000B3FEAE4235D1019904F1100000F080FA0A
:101630002046FFF766FF00F0B1F938B94FF080534C
:10164000CAF80030BFF34F8FBFF36F8F0126FFF74B
:1016500079FEA26BE36B9A4201D3022FB7D13A46CF
:1016600049462046FFF71AFF636A1BB104F12400C4
:1016700000F078FA38B1194B4FF080521A60BFF37E
:101680004F8FBFF36F8FFFF77FFE012004B0BDE8DF
:10169000F0872046FFF735FF00F080F9D6E72046B7
:1016A000FFF72FFF00F07AF995E7022F02D1E36BE5
:1016B000012B0AD100F0E8FA00283FF47BAF0026A6
:1016C0004FF00008DFF814A0C1E74FF0500383F398
:1016D0001188BFF36F8FBFF34F8FFEE704ED00E07B
:1016E0002DE9F843884691461F46044640B94FF01D
:1016F000500383F31188BFF36F8FBFF34F8FFEE763
:1017000009BB036CFBB14FF0500383F31188BFF3A7
:101710006F8FBFF34F8FFEE704F1240000F022FA31
:10172000002834D0B9F1000F31D00120C9F80000F1
:1017300086F31188BDE8F88301356DB284F8455011
:1017400025E00020F4E7022F02D1E36B012B20D12A
:10175000FFF776FEEFF311864FF0500383F3118805
:10176000BFF36F8FBFF34F8FA26BE36B9A4201D32E
:10177000022FE6D194F845503A466DB241462046D4
:10178000FFF78CFE6B1CD7D1636A002BC4D10120FC
:10179000CEE74FF0500383F31188BFF36F8FBFF391
:1017A0004F8FFEE7064A13681968064B19B94FF0C8
:1017B000FF321A6070471268D268D2685268F8E740
:1017C00030000020D4000020F8B51B4B1B4E1D68D4
:1017D0000446306804300F46FFF791FD334640B9A8
:1017E0003168174EC96A32680120884022EA000237
:1017F0003260621C07D137B1196812480431BDE864
:10180000F840FFF759BD2C441A68A542546007D927
:101810000D4A10681968BDE8F8400431FFF758BD5B
:101820000A4A106819680431FFF752FD084B1A681C
:10183000944238BF1C60F8BD080100202C00002035
:10184000D0000020F40000203400002030000020F0
:10185000D40000204FF0500383F31188BFF36F8F43
:10186000BFF34F8FFEE70000024A13680133136095
:10187000704700BFCC0000202DE9F84F3C4B1B689F
:10188000002B53D13B4B1C6801341C60BCB93A4B54
:101890001A68126842B14FF0500383F31188BFF306
:1018A0006F8FBFF34F8FFEE7344A196810681860D6
:1018B0001160334A136801331360FFF773FF314D32
:1018C000314F2B689C424FF0000B3ED3DFF8A880CD
:1018D000DFF8C490D8F80020126872BB4FF0FF32D6
:1018E0002A6032E006F1040A5046FFF708FDB16AAB
:1018F00019B106F11800FFF702FDF06AD9F80030BF
:10190000012202FA00F11943204BC9F800104FF0F0
:10191000140E51460EFB0030FFF7CEFC3868F16A1A
:10192000C26A914228BF4FF0010BD3E7184A1368EF
:10193000013313604FF0000B11E0D8F80020D2689B
:10194000D66871688C42CDD229603A680F4BD16A53
:1019500014224A439A58022A28BF4FF0010B0D4A1D
:101960001268002A18BF4FF0010B5846BDE8F88FE7
:10197000CC000020080100203000002034000020AE
:10198000D8000020D40000202C00002038000020C7
:10199000C80000200C010020D00000202DE9F843F1
:1019A000314C236843B94FF0500383F31188BFF3E0
:1019B0006F8FBFF34F8FFEE7FFF7C4FC2368013B37
:1019C000236024682CB10024FFF7DEFC2046BDE82C
:1019D000F883264B1B68002BF5D0DFF8A890244F26
:1019E000DFF8A480D9F80030E3B90CB1FFF7DAFED4
:1019F000204D2C6844B1204E0127FFF73DFF00B178
:101A00003760013CF9D12C601B4B1B68002BDAD0EE
:101A10001A4B4FF080521A60BFF34F8FBFF36F8F96
:101A20000124D1E7D9F80C30DC68261D04F1180038
:101A3000FFF765FC3046FFF762FCE26A3968012572
:101A400005FA02F314200B4300FB028031463B6091
:101A5000FFF732FC0A4BE26A1B68DB6A9A4224BF3A
:101A6000054B1D60BEE700BFCC000020C400002075
:101A7000D0000020C80000200C01002004ED00E090
:101A80002C000020DC0000203800002038B5234B5B
:101A90001A68234B12B101221A6038BD214C1A601A
:101AA00023681B6B1A68B2F1A53F0BD15A68B2F1DB
:101AB000A53F07D19A68B2F1A53F03D1DB68B3F126
:101AC000A53F04D020682168343100F009FF164B8F
:101AD0001B68B3FA83F3DBB2C3F11F03142213496B
:101AE0005A4388188D5845B94FF0500383F3118835
:101AF000BFF36F8FBFF34F8FFEE7456808326D6805
:101B000045600A44954204BF6A684260142202FBA1
:101B100003135B68DB68236038BD00BFCC00002086
:101B20000C0100202C000020D000002038000020F4
:101B300010B50C4640B94FF0500383F31188BFF342
:101B40006F8FBFF34F8FFEE7054B19681831FFF712
:101B5000BFFB20460121BDE81040FFF735BE00BFA6
:101B60002C00002038B5C368DC6844B94FF050033E
:101B700083F31188BFF36F8FBFF34F8FFEE704F13C
:101B800018052846FFF7BBFB114B1B68E3B9251D61
:101B90002846FFF7B4FB0F49E26A08680123934027
:101BA00003430B600C4B1420294600FB0230FFF767
:101BB00083FB0A4BE26A1B68DB6A9A4283BF084BCD
:101BC00001201860002038BD29460648EFE700BF15
:101BD000CC000020D0000020380000202C00002085
:101BE0000C010020DC00002008B508B9FFF732FE28
:101BF000034B1B680360034B1B68436008BD00BFB9
:101C0000D80000200801002038B50D46044640B930
:101C10004FF0500383F31188BFF36F8FBFF34F8FE3
:101C2000FEE741B94FF0500383F31188BFF36F8F84
:101C3000BFF34F8FFEE7FFF785FB0E4B19682B684C
:101C40005A1C10D00C4A206812689042626801D079
:101C500091420DD2881A83420AD95B1A13442B6031
:101C60002046FFF7C1FF0024FFF78EFB204638BD5A
:101C70000124F9E708010020D8000020014B0122CF
:101C80001A6070470C010020054B1B6833B1054BEF
:101C90001B68002B0CBF02200020704701207047FA
:101CA000F0000020CC000020F8B5044608B9002060
:101CB000F8BD224B1B68984208D04FF0500383F3C5
:101CC0001188BFF36F8FBFF34F8FFEE7836C43B96B
:101CD0004FF0500383F31188BFF36F8FBFF34F8F23
:101CE000FEE7C16A426C013B91428364DFD0002B66
:101CF000DDD1051D2846FFF702FB114E114A50B9F0
:101D0000E76A1421794373582BB913680120B8404E
:101D100023EA00031360636CE362C3F10701A1616E
:101D20001168012404FA03F008431060142000FB3A
:101D300003602946FFF7C0FA2046F8BD2C000020BA
:101D400038000020D00000202DE9F04FADF6140D32
:101D5000012300220DF5826104A841F8232040F8F8
:101D6000223013F0800018BF1B2083EA43030132A6
:101D70004340B2F5807FDBB2EED1684C01230022F4
:101D800013F0800044F8223018BF1B20013280EA93
:101D900043030A2ADBB2F3D1614E624D63233370F1
:101DA000002385F86330012451F8243004AAC3F1DC
:101DB000FF0352F823304FEAE31E4EEA430E5FFA68
:101DC0008EFE4FEAEE1747EA4E07FFB2F81140EADF
:101DD0004700C0B283F06303C21183EA0E0342EAF4
:101DE00040027B404340D2B253403355EC5401345F
:101DF000B4F5807FD8D18B6B01934B6A0293CF6A85
:101E00004B6BDFF81CE1DFF830C1DFF83081DFF821
:101E10003091DFF830A1DFF80CB10393002212F803
:101E20000E1011F0800F14BF1B20002080EA41002B
:101E30000B04C0B243EA01234340414043EA01633B
:101E40004FEA33614CF8223048F822104FEA334110
:101E50004FEA33234AF822301BF8023049F82210A7
:101E60009400002B54D00DF58261019851F8231095
:101E70004518FF2095FBF0F6C6EB0626AE1B04AD19
:101E800055F82650029E314491FBF0F0C0EB002043
:101E9000091A04A850F8211009024D40002B3AD02D
:101EA0000DF58261039851F823100144FF2091FB46
:101EB000F0F0C0EB0020081A04A951F82010090422
:101EC0004D4073B10DF5826151F82330FF213B4441
:101ED00093FBF1F1C1EB0121591A04AB53F8213006
:101EE0001B065D40104BE550104B4FEA3561E15049
:101EF0000F4B4FEA3541E15001320E4B4FEA352589
:101F0000B2F5807FE5508AD10DF6140DBDE8F08F53
:101F10001D461946C1E71946D2E700BF101200203E
:101F2000100100203812002038130020381700203C
:101F3000381B0020381F002010020020100600204F
:101F4000100A0020100E00204FF48C72002100F0C7
:101F500006BE0000F8B58A4F3B6805460C4616469B
:101F60001BB9FFF7F1FE01233B60C02E4FD0B6F541
:101F7000807F4ED0802E40F0FF800A2305F10800BC
:101F80002B606860760921460022B24201F104010B
:101F900041D12B680C2B50D00E2B00F08F800A2BD8
:101FA00033D105F11800774E774D002456F82420E0
:101FB00050F8041C50F8103C5340C1F30722013480
:101FC000AA5C53400A0E0A2CAA5C83EA0243CAB2F6
:101FD00000F11000AA5C83EA0263C1F30742AA5C25
:101FE00083EA022350F81C2C40F8103C83EA0203D9
:101FF00050F8182C40F80C3C83EA020340F8083CE7
:1020000083EA010340F8043CD0D10020F8BD0C2342
:10201000B4E70E23B2E711F8023C11F8034C1B049D
:1020200043EA042311F8044C234311F8014C43EA1A
:10203000046340F822300132A7E705F12000514E39
:10204000514D002456F8242050F8041C50F8183C38
:102050005340C1F307220134AA5C53400A0E082CF6
:10206000AA5C83EA0243CAB200F11800AA5C83EAC0
:102070000263C1F30742AA5C83EA022350F82C2CC6
:1020800040F8183C83EA020350F8282C40F8143C2E
:1020900083EA020350F8242C40F8103C83EA020340
:1020A00050F8202C40F80C3C83EA020340F8083C2E
:1020B00083EA010340F8043CC4D1A6E705F12800F7
:1020C000314A304D002455F8243050F8041C50F8A3
:1020D000206C50F8107C7340C1F307260134965DE4
:1020E00073400E0E072C965D83EA0643CEB200F1D4
:1020F0002000965D83EA0663C1F30746965D83EA96
:10210000062350F83C6C40F8203C83EA060350F864
:10211000386C40F81C3C83EA060350F8346C40F8F5
:10212000183C83EA0603DEB240F8143C965D86EA6A
:1021300007064FEA1367D75D86EA0766C3F30727EA
:10214000C3F30743D75DD35C86EA072686EA0343D9
:1021500050F82C6C40F8103C83EA060350F8286CC9
:1021600040F80C3C83EA060381EA030140F8083C8E
:1021700040F8041CA7D148E76FF01F00F8BD00BF6E
:102180003823002010120020100100202DE9F74F05
:1021900045684E680C68D1F808C0CF68E9682B68BC
:1021A000DFF878E34F400168DA48491001395C40B4
:1021B0006B68019129467340AE6851F8109FD64D67
:1021C0008CEA060C019E002E88465FFA84FA01F123
:1021D00020014FEA176B00F3D18050F82B6055F8BF
:1021E0002A10DFF840E3714081EA0909C3F30721AF
:1021F000CA4E5EF8211089EA0109CCF307414FEA83
:10220000146A56F8211050F82AA089EA0109D9B2B7
:102210004FEA136B55F8211050F82BB081EA0A0AE7
:10222000D8F804108AEA010ACCF30721C3F3074364
:102230005EF8211056F823308AEA010AC7F30741F5
:1022400056F821108AEA010A5FFA8CF14FEA1C6CF9
:1022500055F8211050F82C0081EA0B0BD8F8081023
:102260008BEA0101C7F3072BFFB25EF82BB055F8DC
:10227000275081EA0B01C4F3074BC4F30724454000
:10228000D8F80C005EF8244056F82BB06840604047
:1022900058405FFA89F4A24B1E5DD8F810406640A2
:1022A000040E81EA0B011C5D86EA0466CAF307246A
:1022B0001C5D86EA0426C1F307441C5D86EA0446D9
:1022C0005FFA8AF41D5DD8F814406C404FEA196536
:1022D0005D5D84EA0564C1F307255D5D84EA05243C
:1022E000C0F307455D5D84EA0544CDB2090E5F5D2C
:1022F000D8F818507D404FEA1A67CAF3074ADF5DE5
:1023000085EA0765C0F30727C0B2DF5D185C595C3A
:1023100085EA0725C9F30747C9F30729DF5D85EA81
:102320000745D8F81C70784080EA016013F809105E
:1023300013F80A30167080EA0120310A5170310C0E
:102340009170210A5171210C9171290A80EA03438D
:102350005172290C9172190A360E14711572240EDD
:102360002D0E137351730020190C1B0ED670D471EF
:10237000D5729173D37303B0BDE8F08F50F82B8002
:1023800055F82AA051F8206C8AEA080A8AEA060A57
:10239000C3F30728634E56F8288051F81C6C8AEA6C
:1023A000080ACCF307485FFA83F95EF8288055F8ED
:1023B00029B08AEA080A4FEA14685FFA8CF950F8E3
:1023C000288055F829908BEA080B8BEA060BCCF392
:1023D0000728544E56F8288051F8186C8BEA080BE1
:1023E000C7F307484FEA1C6C5EF828808BEA080B9D
:1023F0004FEA1368C3F3074350F8288089EA0808B6
:1024000088EA0608C7F30729464E56F8299088EA55
:102410000908C4F30749FFB25EF8299055F8277000
:1024200088EA090850F82C90C4F3072487EA0909C0
:1024300051F8147C89EA070956F8247089EA0709DB
:102440005EF8237089EA07095FFA8AF44FEA196394
:1024500055F8244050F823305C4051F8103C5C4063
:10246000CBF307235FFA8BF756F8233055F8277024
:102470005C40C8F307435FFA88FC5EF8233055F8E8
:102480002CC05C404FEA1A6350F823305F4051F88B
:102490000C3C7B40C8F307274FEA186856F82770B2
:1024A0007B40C9F307475EF827707B404FEA1B6704
:1024B000CBF3074B50F827708CEA070C51F8087CD7
:1024C00050F828808CEA070CC9F307275FFA89F9CE
:1024D00056F827708CEA070CCAF30747CAF3072A95
:1024E0005EF827708CEA070C55F82970D1F8009037
:1024F00087EA080851F8047C88EA070756F82A801A
:10250000019E87EA08075EF82B80013E87EA0807EC
:10251000019657E6100E002010020020100A00203D
:1025200010010020100600202DE9F74F4568D1F872
:1025300000C04C688E68CF68E9682B68DFF878E3E4
:102540004F400168DA48491001398CEA030C6B6886
:10255000019129465C40AB6851F8109FD54D7340FE
:10256000019E002E88465FFA8CFB01F120014FEAA4
:10257000146A00F3D08050F82A6055F82B10DFF869
:1025800040E3714081EA0909C7F30721CA4E5EF8AA
:10259000211089EA0109C3F307414FEA136A56F88B
:1025A000211050F82AA089EA0109E1B24FEA176B1D
:1025B00055F8211050F82BB081EA0A0AD8F8041017
:1025C0008AEA010ACCF307215EF821108AEA010A9F
:1025D000C7F30741FFB256F821108AEA010AD9B2BF
:1025E000C3F3072355F8211055F827505EF8233020
:1025F00081EA0B0BD8F808108BEA0101C4F3072B12
:10260000C4F307445EF82BB081EA0B01CCF3074B0F
:102610004FEA1C6C56F82BB050F82C004540D8F807
:102620000C006840584056F824305FFA89F458404E
:10263000A24B1E5DD8F8104066404FEA1A6481EA4A
:102640000B011C5D86EA0466C0F307241C5D86EA64
:102650000426C1F307441C5D86EA04465FFA8AF447
:102660001D5DD8F814406C400D0E5D5D84EA056474
:10267000C9F307255D5D84EA0524C0F307455D5D68
:1026800084EA0544CDB2C1F307215F5DD8F8185044
:102690007D40070EC0B2DF5D85EA0765CAF30727F4
:1026A000CAF3074ADF5D185C595C85EA0725C9F360
:1026B00007474FEA1969DF5D85EA0745D8F81C70BE
:1026C000784013F8097013F80A30167080EA076032
:1026D00080EA0120310A5170310C9170210A517148
:1026E000210C9171290A80EA03435172290C9172DD
:1026F000190A360E14711572240E2D0E13735173B0
:102700000020190C1B0ED670D471D5729173D3733F
:1027100003B0BDE8F08F50F82A8055F82B9051F89F
:10272000206C89EA080989EA0609C7F30728644E7C
:1027300056F8288051F81C6C89EA0809C3F3074849
:102740005FFA84FA5EF8288055F82AA089EA080919
:102750004FEA13685FFA83FB50F8288055F82BB0D6
:102760008AEA080A8AEA060ACCF30728544E56F881
:10277000288051F8186C8AEA080AC7F30748C3F39F
:1027800007235EF828808AEA080A4FEA1768FFB232
:1027900050F8288055F827708BEA080888EA060860
:1027A000C4F3072B464E56F82BB056F8233088EA70
:1027B0000B08CCF3074B4FEA1C6CC4F3074450F8EA
:1027C0002CC05EF82BB087EA0C0C51F8147C8CEA14
:1027D00007075F405EF824304FEA1A645F405FFAF3
:1027E00089F350F8244055F8233083EA040C51F85B
:1027F000103C8CEA030CC7F3072388EA0B0856F851
:1028000023308CEA030CC8F307435FFA8AF45EF8BE
:10281000233055F824408CEA030C4FEA18635FFA22
:1028200088FB50F8233055F82BB05C4051F80C3C35
:102830005C40C9F30723C8F3072856F823305C40EF
:10284000C7F307435EF823305C403B0EFFB250F8FD
:1028500023308BEA030B51F8083C55F8277056F8E3
:1028600028808BEA0303CAF3072BCAF3074A56F8FA
:102870002BB0019E83EA0B03C9F3074B4FEA19699A
:102880005EF82BB050F8299087EA090951F8047CCA
:1028900089EA070787EA08075EF82A80D1F80090DE
:1028A000013E83EA0B0387EA0807019658E600BF5A
:1028B000381F002038130020381B00203812002059
:1028C0003817002010B40129144621461A4603D1B6
:1028D0005DF8044BFFF75ABC5DF8044BFFF724BECC
:1028E0007047000080B5DAB0354C364800260196B6
:1028F000236B43F040032363236B03F04003012564
:10290000019303274FF400580FA9019B10951195CF
:102910001297CDF83C80FDF711FD2A464146294823
:10292000FDF7F8FD0296236B274843F0100323635D
:10293000236B109503F01003029304240FA9029B4C
:10294000119512970F94FDF7F9FC324621461E4867
:102950001D4DFDF7DFFD1D4B03AC03F1100618689C
:102960005968224603C20833B3421446F7D1184BC4
:1029700007AC03F1100618685968224603C20833F1
:10298000B3421446F7D114A8FFF7DEFA03A94FF4B7
:10299000807214A8FFF7DEFA284601220421FDF711
:1029A000B9FD0BAB07AA012114A8FFF78BFF28463E
:1029B00000220421FDF7AEFDC820FDF71FFCCAE789
:1029C000003802400018024000100240882B000826
:1029D000982B0008FEF766BC0148FEF73CB900BF23
:1029E000282400200148FDF79BBD00BF642400207F
:1029F0000148FEF7CEB800BF402300200148FDF794
:102A000013BC00BFE82300200F49D1F8883043F4FD
:102A10007003C1F888300D4B1A68002042F00102A3
:102A20001A6098601A6822F0847222F480321A6068
:102A3000074A5A601A6822F480221A60D8604FF060
:102A400000638B60704700BF00ED00E0003802407B
:102A500010300024D0F89402FEF79DBBD0F8940209
:102A6000FEF7A7BBD0F89402FEF7BDBBD0F89402E6
:102A7000FEF7DBBB08B5D0F8C003FEF75FF803280C
:102A80009ABF024B185C022008BD00BFA82B0008AB
:102A900008B5D0F8C003FEF767F803289ABF024BC9
:102AA000185C022008BD00BFA82B0008DFF834D056
:102AB000002103E00C4B5B58435004310B480C4B96
:102AC00042189A42F6D30B4A02E0002342F8043B34
:102AD000094B9A42F9D3FFF797FF00F011F8FFF77F
:102AE00001FF704700000320B42B00080000002005
:102AF0000800002008000020FC260020FEE700005F
:102B000070B50D4E0D4CA41BA4100025A54209D193
:102B10000B4E0C4C00F02CF8A41BA4100025A54271
:102B200005D170BD56F8253098470135EEE756F8C7
:102B3000253098470135F2E7AC2B0008AC2B000894
:102B4000AC2B0008B02B000810B5431E0A4491427C
:102B500000D110BD11F8014B03F8014FF7E7024413
:102B60000346934200D1704703F8011BF9E70000C8
:102B7000F8B500BFF8BC08BC9E467047F8B500BF6A
:082B8000F8BC08BC9E4670473A
:102B88006EBB82466B1628390D8B7B66F3ED167883
:102B9800D64A11083CB94D7171752FE3548FA86559
:042BA8000002010224
:042BAC00D501000847
:042BB000B101000867
:082BB40001000000AAAAAAAA70
:0400000508002AAD18
:00000001FF
